:1000000000200010430000004100000041000000FB
:1000100041000000410000004100000041000000DC
:1000200041000000410000004100000041000000CC
:1000300041000000410000004100000041000000BC
:10004000FEE70B480B490C4A091A05D013780370D8
:10005000013201300139F9DC08480949091A04D094
:100060005B40037001300139FBDC00F05DFBFEE713
:100070000000001050030010400700005003001063
:1000800050030010900A00000346002003B101B99C
:100090007047CA0748BF584013F0800F4FEA430328
:1000A00018BF83F01B03DBB24908EFE70B7813702E
:1000B00043405370704700002DE9F04F85B04F4822
:1000C00000AF00F0DBF8002800F092804C4C236871
:1000D0009A1D22F00702ADEB020D073323F0070350
:1000E000C7F804D0ADEB020DEA46ADEB030DE846D0
:1000F000ADEB030DE946ADEB030DEB46002000F040
:1001000073FA0646002000F06FFA002305462268C5
:10011000013A93423EDB00232268013A934243DBDB
:10012000002000F061FA3873002000F05DFA7B686F
:1001300049461B78787388F80030734088F801309E
:100140009AF80030404689F800306B4089F8013059
:1001500007F10C025B4600F055F83146002000F034
:100160004FFA00232268934227DB2946002000F043
:1001700047FA00232268934228DB00232268934237
:100180002DDB31462846FFF77FFF0146002000F0B7
:1001900037FAB3E700203B6000F026FA7B681A4686
:1001A0003B68D0540133B2E700203B6000F01CFAFA
:1001B0003B680AF803000133AEE718F8031000208B
:1001C0003B6000F01DFA3B680133CBE719F80310E0
:1001D00000203B6000F014FA3B680133CAE71BF8CB
:1001E000031000203B6000F00BFA3B680133C5E7C9
:1001F0004FF0FF301437BD46BDE8F08F22030010EA
:100200000000001000B52DE9F003984617780C782F
:100210004E787C407E4052780378457818462146D7
:1002200000F019F807462846314600F014F88146D8
:100230001846314600F00FF8504047402846214606
:1002400000F009F850404A46424043461F705A7039
:10025000BDE8F00300BD3CB4074A135C545C1B19B5
:1002600080338033D45C45422D100D406D422D10FB
:100270002C4020463CBC7047040000102DE9F84F8C
:1002800001211027934D04682B68934ED3F88020EA
:100290005FFA84FE42F48032C3F880208F4ABEF1B8
:1002A000020F1268AC469167D1671761C2F8A410BB
:1002B000C2F8A81040F2012111635163D3F88020E5
:1002C000346042F02002C3F88020D3F8802042F04E
:1002D0004002C3F88020D3F8802042F48052C3F853
:1002E00080205A6822F002025A605A6842F00202E4
:1002F0005A6040F2D0800020CBE00134B4F5807F1A
:1003000007D12029F7D0474601248A46013101FB55
:1003100008F9B9FBF4FB04FB1B92002AEDD15D4503
:10032000EBD1022505FA02F809FB08F8A8F19C08B0
:10033000B8F1A40F00F2B580DFF8BC914AEA42128E
:1003400007F1FF3A19F80E80BAF1130FF14499F84A
:10035000039040F2AB800F3F0A2F40F2A880D3F801
:100360003852BEF1000F40F0A48045F02005C3F8DC
:100370003852C82300BF013BFCD1DCF80030C3F881
:1003800040905D6C45F001055D645D6C25F00105F4
:100390005D645D6C45F001055D645D6CEF07FCD547
:1003A0009A60D3F8382222F08002C3F83822DA6843
:1003B000D507FCD5C3F870805A6F42F001025A6726
:1003C0005A6F22F001025A675A6F42F001025A67CF
:1003D0005A6FD207FCD5B2789C67142A6CD80025D6
:1003E0003F4C246825613F4C02EB8202246804F5EF
:1003F00000452F6847F001072F602F6847F002077C
:100400002F60394D2D6805F500452F6827F002074C
:100410002F6043F6FC75675927F00107675167594C
:1004200027F002076751052574786143C3F89810D7
:100430002E4B04241B68D96841F08001D9609D626D
:10044000996A41F080019962002159601C60D96865
:1004500021F08001D960D96841F00301D960D968E1
:1004600021F00801D960D96821F00401D960204B3E
:100470001B685A611A6140221A606FF07F421D4B5F
:100480001B685A619A61C27812B31D6100F048F985
:100490000120BDE8F88F0021C4F30728C4F3074505
:1004A00031E70132042A7FF43DAF24E700251D62C5
:1004B00055E725F020055AE7282A03D8084C0125DE
:1004C00024688FE7322A8ED8054C0225246889E7F4
:1004D0001C61DBE726030010500300102A03001004
:1004E00046030010320300102E0300103E030010DC
:1004F000420300104A03001032070000054B9B78AE
:100500005843022804DD032390FBF3F00138FDD1AA
:10051000704700BF500300100246002108B5914209
:1005200000DB08BD4FF47A70FFF7E8FF0131F6E712
:10053000024B00211B689869704700BF4A030010F6
:1005400001280AD0022810D088B90A4B1A6843F64D
:10055000FC73D05800F001007047064B1A6843F650
:10056000FC73D058C0F340007047034BF6E70020FF
:10057000704700BF320300102E030010012810D076
:10058000022817D040B90E4B1A6843F6FC7321B10C
:10059000D15841F00101D1507047D15821F00101EB
:1005A000F9E7074B1A6843F6FC7329B1D15841F0BB
:1005B0000201F0E7034BF5E7D15821F00201EAE729
:1005C000320300102E030010024B1B68586900F024
:1005D000010070473E030010024B1B685869C0F3CE
:1005E000401070473E030010044B1B6810B95A6955
:1005F000D207FCD51868C0B2704700BF3E03001098
:1006000008B510B9FFF7E8FFFBE7024B1B6819605C
:1006100008BD00BF3E0300102DE9F041202541EA4E
:100620004000042738214FF03C0E4FF024084FF0D3
:10063000180C354E346825603468656805F0F80597
:10064000302D45D019D8182D35D00CD8082D2DD0E7
:10065000102D2BD0002DF0D114232360282301204E
:10066000A361BDE8F081202D3BD0282DE5D1013BD1
:1006700022D114222260A56128E0482D31D008D86B
:10068000382D2BD0402DD8D1012B18D8C4F818E024
:10069000D2E7502D2BD0582DCFD10BB1A3681370BA
:1006A000142233681A6028229A610FE0A060276044
:1006B000C4F818C0C0E72BB112F8015BA560276031
:1006C000A161B9E7142222602822A2610020C8E7B4
:1006D0001423236028230320A361C2E7C4F8008009
:1006E000E6E71423236028230220A361B9E7A46866
:1006F000551C14703268013B012B8ABF1760C2F889
:1007000018E091612A4697E74203001013460A4613
:100710000121FFF781BF13460A460021FFF77CBF86
:1007200062B6704772B6704740404940FFF7C4FC5C
:08073000704703030100010101
:080738000000000000000000B9
:10074000020000000000190132021AC64BC71B68E4
:1007500033EEDF036404E00E348D81EF4C7108C882
:10076000F8691CC17DC21DB5F9B9276A4DE4A672AE
:100770009AC90978652F8A05210FE12412F0824574
:100780003593DA8E968FDBBD36D0CE94135CD2F1E2
:100790004046833866DDFD30BF068B62B325E298A4
:1007A000228891107E6E48C3A3B61E423A6B28542D
:1007B000FA853DBA2B790A159B9F5ECA4ED4ACE5EB
:1007C000F373A757AF58A850F4EAD6744FAEE9D5E3
:1007D000E7E6ADE82CD7757AEB160BF559CB5FB091
:1007E0009CA951A07F0CF66F17C449ECD8431F2D6C
:1007F000A4767BB7CCBB3E5AFB60B1863B52A16C62
:10080000AA55299D97B2879061BEDCFCBC95CFCDDF
:10081000373F5BD15339843C41A26D47142A9E5D1A
:1008200056F2D3AB441192D923202E89B47CB8263A
:100830007799E3A5674AEDDEC531FE180D638C801C
:10084000C0F770070103050F113355FF1A2E72967A
:10085000A1F813355FE13848D87395A4F702060A6A
:100860001E2266AAE5345CE43759EB266ABED970CD
:1008700090ABE63153F5040C143C44CC4FD168B82E
:10088000D36EB2CD4CD467A9E03B4DD762A6F10838
:1008900018287888839EB9D06BBDDC7F8198B3CE51
:1008A00049DB769AB5C457F9103050F00B1D276913
:1008B000BBD661A3FE192B7D8792ADEC2F7193AE51
:1008C000E92060A0FB163A4ED26DB7C25DE7325602
:1008D000FA153F41C35EE23D47C940C05BED2C7451
:1008E0009CBFDA759FBAD564ACEF2A7E829DBCDFCF
:1008F0007A8E89809BB6C158E82365AFEA256FB12F
:10090000C843C554FC1F2163A5F407091B2D779923
:10091000B0CB46CA45CF4ADE798B8691A8E33E42EA
:10092000C651F30E12365AEE297B8D8C8F8A859430
:10093000A7F20D17394BDD7C8497A2FD1C246CB403
:10094000C752F60103050F113355FF1A2E7296A1F7
:10095000F813355FE13848D87395A4F702060A1EEC
:100960002266AAE5345CE43759EB266ABED970905A
:10097000ABE63153F5040C143C44CC4FD168B8D3EA
:100980006EB2CD4CD467A9E03B4DD762A6F10818F2
:10099000287888839EB9D06BBDDC7F8198B3CE491F
:1009A000DB769AB5C457F9103050F00B1D2769BBA0
:1009B000D661A3FE192B7D8792ADEC2F7193AEE922
:1009C0002060A0FB163A4ED26DB7C25DE73256FAF0
:1009D000153F41C35EE23D47C940C05BED2C749CAE
:1009E000BFDA759FBAD564ACEF2A7E829DBCDF7AF0
:1009F0008E89809BB6C158E82365AFEA256FB1C8E0
:100A000043C554FC1F2163A5F407091B2D7799B03A
:100A1000CB46CA45CF4ADE798B8691A8E33E42C6D3
:100A200051F30E12365AEE297B8D8C8F8A8594A74E
:100A3000F20D17394BDD7C8497A2FD1C246CB4C7E2
:100A400052F601000000000000000000000000005D
:100A50000000000000000000000000000000000096
:100A60000000000C0C010080044000400440000025
:100A700000500000015000000250000003500080B0
:100A800000400000004000C0034000E000E0000023
:00000001FF
